{
  "_format": "hh-sol-artifact-1",
  "contractName": "BloodBank",
  "sourceName": "contracts/BloodBank.sol",
  "abi": [
    {
      "inputs": [],
      "stateMutability": "nonpayable",
      "type": "constructor"
    },
    {
      "anonymous": false,
      "inputs": [
        {
          "indexed": false,
          "internalType": "uint256",
          "name": "unitId",
          "type": "uint256"
        },
        {
          "indexed": true,
          "internalType": "address",
          "name": "hospital",
          "type": "address"
        }
      ],
      "name": "UnitRequest",
      "type": "event"
    },
    {
      "anonymous": false,
      "inputs": [
        {
          "indexed": false,
          "internalType": "uint256",
          "name": "unitId",
          "type": "uint256"
        },
        {
          "indexed": true,
          "internalType": "address",
          "name": "from",
          "type": "address"
        },
        {
          "indexed": true,
          "internalType": "address",
          "name": "to",
          "type": "address"
        }
      ],
      "name": "UnitTransfer",
      "type": "event"
    },
    {
      "inputs": [
        {
          "internalType": "address",
          "name": "_bloodBankAddress",
          "type": "address"
        }
      ],
      "name": "addBloodBank",
      "outputs": [],
      "stateMutability": "nonpayable",
      "type": "function"
    },
    {
      "inputs": [
        {
          "internalType": "address",
          "name": "_hospitalAddress",
          "type": "address"
        }
      ],
      "name": "addHospital",
      "outputs": [],
      "stateMutability": "nonpayable",
      "type": "function"
    },
    {
      "inputs": [],
      "name": "admin",
      "outputs": [
        {
          "internalType": "address",
          "name": "",
          "type": "address"
        }
      ],
      "stateMutability": "view",
      "type": "function"
    },
    {
      "inputs": [
        {
          "internalType": "uint256",
          "name": "_unitId",
          "type": "uint256"
        },
        {
          "internalType": "address",
          "name": "_hospitalAddress",
          "type": "address"
        }
      ],
      "name": "approveTransfer",
      "outputs": [],
      "stateMutability": "nonpayable",
      "type": "function"
    },
    {
      "inputs": [
        {
          "internalType": "uint256",
          "name": "",
          "type": "uint256"
        }
      ],
      "name": "bloodUnits",
      "outputs": [
        {
          "internalType": "uint256",
          "name": "unitId",
          "type": "uint256"
        },
        {
          "internalType": "string",
          "name": "donorName",
          "type": "string"
        },
        {
          "internalType": "enum BloodBank.BloodType",
          "name": "bloodType",
          "type": "uint8"
        },
        {
          "internalType": "uint256",
          "name": "donationDate",
          "type": "uint256"
        },
        {
          "internalType": "uint256",
          "name": "expiryDate",
          "type": "uint256"
        },
        {
          "internalType": "enum BloodBank.UnitStatus",
          "name": "status",
          "type": "uint8"
        },
        {
          "internalType": "address",
          "name": "currentOwner",
          "type": "address"
        },
        {
          "internalType": "address",
          "name": "requestedBy",
          "type": "address"
        }
      ],
      "stateMutability": "view",
      "type": "function"
    },
    {
      "inputs": [],
      "name": "getAvailableUnits",
      "outputs": [
        {
          "components": [
            {
              "internalType": "uint256",
              "name": "unitId",
              "type": "uint256"
            },
            {
              "internalType": "string",
              "name": "donorName",
              "type": "string"
            },
            {
              "internalType": "enum BloodBank.BloodType",
              "name": "bloodType",
              "type": "uint8"
            },
            {
              "internalType": "uint256",
              "name": "donationDate",
              "type": "uint256"
            },
            {
              "internalType": "uint256",
              "name": "expiryDate",
              "type": "uint256"
            },
            {
              "internalType": "enum BloodBank.UnitStatus",
              "name": "status",
              "type": "uint8"
            },
            {
              "internalType": "address",
              "name": "currentOwner",
              "type": "address"
            },
            {
              "internalType": "address",
              "name": "requestedBy",
              "type": "address"
            }
          ],
          "internalType": "struct BloodBank.BloodUnit[]",
          "name": "",
          "type": "tuple[]"
        }
      ],
      "stateMutability": "view",
      "type": "function"
    },
    {
      "inputs": [],
      "name": "getUnitCount",
      "outputs": [
        {
          "internalType": "uint256",
          "name": "",
          "type": "uint256"
        }
      ],
      "stateMutability": "view",
      "type": "function"
    },
    {
      "inputs": [
        {
          "internalType": "address",
          "name": "",
          "type": "address"
        }
      ],
      "name": "isBloodBank",
      "outputs": [
        {
          "internalType": "bool",
          "name": "",
          "type": "bool"
        }
      ],
      "stateMutability": "view",
      "type": "function"
    },
    {
      "inputs": [
        {
          "internalType": "address",
          "name": "",
          "type": "address"
        }
      ],
      "name": "isHospital",
      "outputs": [
        {
          "internalType": "bool",
          "name": "",
          "type": "bool"
        }
      ],
      "stateMutability": "view",
      "type": "function"
    },
    {
      "inputs": [
        {
          "internalType": "string",
          "name": "_donorName",
          "type": "string"
        },
        {
          "internalType": "enum BloodBank.BloodType",
          "name": "_bloodType",
          "type": "uint8"
        }
      ],
      "name": "recordNewBloodUnit",
      "outputs": [],
      "stateMutability": "nonpayable",
      "type": "function"
    },
    {
      "inputs": [
        {
          "internalType": "uint256",
          "name": "_unitId",
          "type": "uint256"
        }
      ],
      "name": "requestUnit",
      "outputs": [],
      "stateMutability": "nonpayable",
      "type": "function"
    }
  ],
  "bytecode": "0x6080604052348015600f57600080fd5b50336000806101000a81548173ffffffffffffffffffffffffffffffffffffffff021916908373ffffffffffffffffffffffffffffffffffffffff1602179055506121f58061005f6000396000f3fe608060405234801561001057600080fd5b50600436106100a95760003560e01c80638852779b116100715780638852779b1461016b578063a408685414610189578063a4676d0d146101a5578063bdf6c673146101c1578063f7f2b53e146101f1578063f851a4401461020d576100a9565b806314d37e59146100ae5780631aadb82a146100ca5780631b470bc7146101015780633ee330dc1461011d578063425719f91461013b575b600080fd5b6100c860048036038101906100c391906113ac565b61022b565b005b6100e460048036038101906100df919061143e565b6104b5565b6040516100f89897969594939291906115f9565b60405180910390f35b61011b600480360381019061011691906116aa565b6105ef565b005b610125610765565b60405161013291906116d7565b60405180910390f35b610155600480360381019061015091906116aa565b610772565b604051610162919061170d565b60405180910390f35b610173610792565b6040516101809190611920565b60405180910390f35b6101a3600480360381019061019e9190611942565b610b2b565b005b6101bf60048036038101906101ba91906116aa565b610e1f565b005b6101db60048036038101906101d691906116aa565b610f95565b6040516101e8919061170d565b60405180910390f35b61020b6004803603810190610206919061143e565b610fb5565b005b610215611174565b6040516102229190611982565b60405180910390f35b600260003373ffffffffffffffffffffffffffffffffffffffff1673ffffffffffffffffffffffffffffffffffffffff16815260200190815260200160002060009054906101000a900460ff166102b7576040517f08c379a00000000000000000000000000000000000000000000000000000000081526004016102ae90611a0f565b60405180910390fd5b6000429050600062278d00826102cd9190611a5e565b905060016040518061010001604052806001805490508152602001868152602001856007811115610301576103006114f9565b5b815260200184815260200183815260200160016004811115610326576103256114f9565b5b81526020013373ffffffffffffffffffffffffffffffffffffffff168152602001600073ffffffffffffffffffffffffffffffffffffffff1681525090806001815401808255809150506001900390600052602060002090600702016000909190919091506000820151816000015560208201518160010190816103aa9190611c9e565b5060408201518160020160006101000a81548160ff021916908360078111156103d6576103d56114f9565b5b0217905550606082015181600301556080820151816004015560a08201518160050160006101000a81548160ff0219169083600481111561041a576104196114f9565b5b021790555060c08201518160050160016101000a81548173ffffffffffffffffffffffffffffffffffffffff021916908373ffffffffffffffffffffffffffffffffffffffff16021790555060e08201518160060160006101000a81548173ffffffffffffffffffffffffffffffffffffffff021916908373ffffffffffffffffffffffffffffffffffffffff160217905550505050505050565b600181815481106104c557600080fd5b90600052602060002090600702016000915090508060000154908060010180546104ee90611ac1565b80601f016020809104026020016040519081016040528092919081815260200182805461051a90611ac1565b80156105675780601f1061053c57610100808354040283529160200191610567565b820191906000526020600020905b81548152906001019060200180831161054a57829003601f168201915b5050505050908060020160009054906101000a900460ff16908060030154908060040154908060050160009054906101000a900460ff16908060050160019054906101000a900473ffffffffffffffffffffffffffffffffffffffff16908060060160009054906101000a900473ffffffffffffffffffffffffffffffffffffffff16905088565b60008054906101000a900473ffffffffffffffffffffffffffffffffffffffff1673ffffffffffffffffffffffffffffffffffffffff163373ffffffffffffffffffffffffffffffffffffffff161461067d576040517f08c379a000000000000000000000000000000000000000000000000000000000815260040161067490611de2565b60405180910390fd5b600360008273ffffffffffffffffffffffffffffffffffffffff1673ffffffffffffffffffffffffffffffffffffffff16815260200190815260200160002060009054906101000a900460ff161561070a576040517f08c379a000000000000000000000000000000000000000000000000000000000815260040161070190611e74565b60405180910390fd5b6001600360008373ffffffffffffffffffffffffffffffffffffffff1673ffffffffffffffffffffffffffffffffffffffff16815260200190815260200160002060006101000a81548160ff02191690831515021790555050565b6000600180549050905090565b60026020528060005260406000206000915054906101000a900460ff1681565b60606000805b60018054905081101561081f57600160048111156107b9576107b86114f9565b5b600182815481106107cd576107cc611e94565b5b906000526020600020906007020160050160009054906101000a900460ff1660048111156107fe576107fd6114f9565b5b0361081257818061080e90611ec3565b9250505b8080600101915050610798565b5060008167ffffffffffffffff81111561083c5761083b61125c565b5b60405190808252806020026020018201604052801561087557816020015b610862611198565b81526020019060019003908161085a5790505b5090506000805b600180549050811015610b21576001600481111561089d5761089c6114f9565b5b600182815481106108b1576108b0611e94565b5b906000526020600020906007020160050160009054906101000a900460ff1660048111156108e2576108e16114f9565b5b03610b1457600181815481106108fb576108fa611e94565b5b9060005260206000209060070201604051806101000160405290816000820154815260200160018201805461092f90611ac1565b80601f016020809104026020016040519081016040528092919081815260200182805461095b90611ac1565b80156109a85780601f1061097d576101008083540402835291602001916109a8565b820191906000526020600020905b81548152906001019060200180831161098b57829003601f168201915b505050505081526020016002820160009054906101000a900460ff1660078111156109d6576109d56114f9565b5b60078111156109e8576109e76114f9565b5b815260200160038201548152602001600482015481526020016005820160009054906101000a900460ff166004811115610a2557610a246114f9565b5b6004811115610a3757610a366114f9565b5b81526020016005820160019054906101000a900473ffffffffffffffffffffffffffffffffffffffff1673ffffffffffffffffffffffffffffffffffffffff1673ffffffffffffffffffffffffffffffffffffffff1681526020016006820160009054906101000a900473ffffffffffffffffffffffffffffffffffffffff1673ffffffffffffffffffffffffffffffffffffffff1673ffffffffffffffffffffffffffffffffffffffff1681525050838381518110610afa57610af9611e94565b5b60200260200101819052508180610b1090611ec3565b9250505b808060010191505061087c565b5081935050505090565b600260003373ffffffffffffffffffffffffffffffffffffffff1673ffffffffffffffffffffffffffffffffffffffff16815260200190815260200160002060009054906101000a900460ff16610bb7576040517f08c379a0000000000000000000000000000000000000000000000000000000008152600401610bae90611a0f565b60405180910390fd5b600060018381548110610bcd57610bcc611e94565b5b906000526020600020906007020190503373ffffffffffffffffffffffffffffffffffffffff168160050160019054906101000a900473ffffffffffffffffffffffffffffffffffffffff1673ffffffffffffffffffffffffffffffffffffffff1614610c6f576040517f08c379a0000000000000000000000000000000000000000000000000000000008152600401610c6690611f57565b60405180910390fd5b8173ffffffffffffffffffffffffffffffffffffffff168160060160009054906101000a900473ffffffffffffffffffffffffffffffffffffffff1673ffffffffffffffffffffffffffffffffffffffff1614610d01576040517f08c379a0000000000000000000000000000000000000000000000000000000008152600401610cf890611fe9565b60405180910390fd5b818160050160016101000a81548173ffffffffffffffffffffffffffffffffffffffff021916908373ffffffffffffffffffffffffffffffffffffffff16021790555060028160050160006101000a81548160ff02191690836004811115610d6c57610d6b6114f9565b5b021790555060008160060160006101000a81548173ffffffffffffffffffffffffffffffffffffffff021916908373ffffffffffffffffffffffffffffffffffffffff1602179055508173ffffffffffffffffffffffffffffffffffffffff163373ffffffffffffffffffffffffffffffffffffffff167fa51440f48227ea580fb17c56d224fc8a0b3f3b96911954fd29581a25ac1c39ef85604051610e1291906116d7565b60405180910390a3505050565b60008054906101000a900473ffffffffffffffffffffffffffffffffffffffff1673ffffffffffffffffffffffffffffffffffffffff163373ffffffffffffffffffffffffffffffffffffffff1614610ead576040517f08c379a0000000000000000000000000000000000000000000000000000000008152600401610ea490611de2565b60405180910390fd5b600260008273ffffffffffffffffffffffffffffffffffffffff1673ffffffffffffffffffffffffffffffffffffffff16815260200190815260200160002060009054906101000a900460ff1615610f3a576040517f08c379a0000000000000000000000000000000000000000000000000000000008152600401610f319061207b565b60405180910390fd5b6001600260008373ffffffffffffffffffffffffffffffffffffffff1673ffffffffffffffffffffffffffffffffffffffff16815260200190815260200160002060006101000a81548160ff02191690831515021790555050565b60036020528060005260406000206000915054906101000a900460ff1681565b600360003373ffffffffffffffffffffffffffffffffffffffff1673ffffffffffffffffffffffffffffffffffffffff16815260200190815260200160002060009054906101000a900460ff16611041576040517f08c379a00000000000000000000000000000000000000000000000000000000081526004016110389061210d565b60405180910390fd5b60006001828154811061105757611056611e94565b5b906000526020600020906007020190506001600481111561107b5761107a6114f9565b5b8160050160009054906101000a900460ff16600481111561109f5761109e6114f9565b5b146110df576040517f08c379a00000000000000000000000000000000000000000000000000000000081526004016110d69061219f565b60405180910390fd5b338160060160006101000a81548173ffffffffffffffffffffffffffffffffffffffff021916908373ffffffffffffffffffffffffffffffffffffffff1602179055503373ffffffffffffffffffffffffffffffffffffffff167f34deb274b79f9f0abc5225c39cda6af28ce95d518e7f2448680e4b679487fbac8360405161116891906116d7565b60405180910390a25050565b60008054906101000a900473ffffffffffffffffffffffffffffffffffffffff1681565b6040518061010001604052806000815260200160608152602001600060078111156111c6576111c56114f9565b5b81526020016000815260200160008152602001600060048111156111ed576111ec6114f9565b5b8152602001600073ffffffffffffffffffffffffffffffffffffffff168152602001600073ffffffffffffffffffffffffffffffffffffffff1681525090565b6000604051905090565b600080fd5b600080fd5b600080fd5b600080fd5b6000601f19601f8301169050919050565b7f4e487b7100000000000000000000000000000000000000000000000000000000600052604160045260246000fd5b6112948261124b565b810181811067ffffffffffffffff821117156112b3576112b261125c565b5b80604052505050565b60006112c661122d565b90506112d2828261128b565b919050565b600067ffffffffffffffff8211156112f2576112f161125c565b5b6112fb8261124b565b9050602081019050919050565b82818337600083830152505050565b600061132a611325846112d7565b6112bc565b90508281526020810184848401111561134657611345611246565b5b611351848285611308565b509392505050565b600082601f83011261136e5761136d611241565b5b813561137e848260208601611317565b91505092915050565b6008811061139457600080fd5b50565b6000813590506113a681611387565b92915050565b600080604083850312156113c3576113c2611237565b5b600083013567ffffffffffffffff8111156113e1576113e061123c565b5b6113ed85828601611359565b92505060206113fe85828601611397565b9150509250929050565b6000819050919050565b61141b81611408565b811461142657600080fd5b50565b60008135905061143881611412565b92915050565b60006020828403121561145457611453611237565b5b600061146284828501611429565b91505092915050565b61147481611408565b82525050565b600081519050919050565b600082825260208201905092915050565b60005b838110156114b4578082015181840152602081019050611499565b60008484015250505050565b60006114cb8261147a565b6114d58185611485565b93506114e5818560208601611496565b6114ee8161124b565b840191505092915050565b7f4e487b7100000000000000000000000000000000000000000000000000000000600052602160045260246000fd5b60088110611539576115386114f9565b5b50565b600081905061154a82611528565b919050565b600061155a8261153c565b9050919050565b61156a8161154f565b82525050565b60058110611581576115806114f9565b5b50565b600081905061159282611570565b919050565b60006115a282611584565b9050919050565b6115b281611597565b82525050565b600073ffffffffffffffffffffffffffffffffffffffff82169050919050565b60006115e3826115b8565b9050919050565b6115f3816115d8565b82525050565b60006101008201905061160f600083018b61146b565b8181036020830152611621818a6114c0565b90506116306040830189611561565b61163d606083018861146b565b61164a608083018761146b565b61165760a08301866115a9565b61166460c08301856115ea565b61167160e08301846115ea565b9998505050505050505050565b611687816115d8565b811461169257600080fd5b50565b6000813590506116a48161167e565b92915050565b6000602082840312156116c0576116bf611237565b5b60006116ce84828501611695565b91505092915050565b60006020820190506116ec600083018461146b565b92915050565b60008115159050919050565b611707816116f2565b82525050565b600060208201905061172260008301846116fe565b92915050565b600081519050919050565b600082825260208201905092915050565b6000819050602082019050919050565b61175d81611408565b82525050565b600082825260208201905092915050565b600061177f8261147a565b6117898185611763565b9350611799818560208601611496565b6117a28161124b565b840191505092915050565b6117b68161154f565b82525050565b6117c581611597565b82525050565b6117d4816115d8565b82525050565b6000610100830160008301516117f36000860182611754565b506020830151848203602086015261180b8282611774565b915050604083015161182060408601826117ad565b5060608301516118336060860182611754565b5060808301516118466080860182611754565b5060a083015161185960a08601826117bc565b5060c083015161186c60c08601826117cb565b5060e083015161187f60e08601826117cb565b508091505092915050565b600061189683836117da565b905092915050565b6000602082019050919050565b60006118b682611728565b6118c08185611733565b9350836020820285016118d285611744565b8060005b8581101561190e57848403895281516118ef858261188a565b94506118fa8361189e565b925060208a019950506001810190506118d6565b50829750879550505050505092915050565b6000602082019050818103600083015261193a81846118ab565b905092915050565b6000806040838503121561195957611958611237565b5b600061196785828601611429565b925050602061197885828601611695565b9150509250929050565b600060208201905061199760008301846115ea565b92915050565b7f4f6e6c7920616e20617574686f72697a656420626c6f6f642062616e6b20636160008201527f6e20706572666f726d207468697320616374696f6e0000000000000000000000602082015250565b60006119f9603583611485565b9150611a048261199d565b604082019050919050565b60006020820190508181036000830152611a28816119ec565b9050919050565b7f4e487b7100000000000000000000000000000000000000000000000000000000600052601160045260246000fd5b6000611a6982611408565b9150611a7483611408565b9250828201905080821115611a8c57611a8b611a2f565b5b92915050565b7f4e487b7100000000000000000000000000000000000000000000000000000000600052602260045260246000fd5b60006002820490506001821680611ad957607f821691505b602082108103611aec57611aeb611a92565b5b50919050565b60008190508160005260206000209050919050565b60006020601f8301049050919050565b600082821b905092915050565b600060088302611b547fffffffffffffffffffffffffffffffffffffffffffffffffffffffffffffffff82611b17565b611b5e8683611b17565b95508019841693508086168417925050509392505050565b6000819050919050565b6000611b9b611b96611b9184611408565b611b76565b611408565b9050919050565b6000819050919050565b611bb583611b80565b611bc9611bc182611ba2565b848454611b24565b825550505050565b600090565b611bde611bd1565b611be9818484611bac565b505050565b5b81811015611c0d57611c02600082611bd6565b600181019050611bef565b5050565b601f821115611c5257611c2381611af2565b611c2c84611b07565b81016020851015611c3b578190505b611c4f611c4785611b07565b830182611bee565b50505b505050565b600082821c905092915050565b6000611c7560001984600802611c57565b1980831691505092915050565b6000611c8e8383611c64565b9150826002028217905092915050565b611ca78261147a565b67ffffffffffffffff811115611cc057611cbf61125c565b5b611cca8254611ac1565b611cd5828285611c11565b600060209050601f831160018114611d085760008415611cf6578287015190505b611d008582611c82565b865550611d68565b601f198416611d1686611af2565b60005b82811015611d3e57848901518255600182019150602085019450602081019050611d19565b86831015611d5b5784890151611d57601f891682611c64565b8355505b6001600288020188555050505b505050505050565b7f4f6e6c79207468652061646d696e2063616e20706572666f726d20746869732060008201527f616374696f6e0000000000000000000000000000000000000000000000000000602082015250565b6000611dcc602683611485565b9150611dd782611d70565b604082019050919050565b60006020820190508181036000830152611dfb81611dbf565b9050919050565b7f54686973206164647265737320697320616c7265616479206120686f7370697460008201527f616c000000000000000000000000000000000000000000000000000000000000602082015250565b6000611e5e602283611485565b9150611e6982611e02565b604082019050919050565b60006020820190508181036000830152611e8d81611e51565b9050919050565b7f4e487b7100000000000000000000000000000000000000000000000000000000600052603260045260246000fd5b6000611ece82611408565b91507fffffffffffffffffffffffffffffffffffffffffffffffffffffffffffffffff8203611f0057611eff611a2f565b5b600182019050919050565b7f596f7520646f206e6f74206f776e207468697320756e69740000000000000000600082015250565b6000611f41601883611485565b9150611f4c82611f0b565b602082019050919050565b60006020820190508181036000830152611f7081611f34565b9050919050565b7f5468697320686f73706974616c20646964206e6f74207265717565737420746860008201527f6520756e69740000000000000000000000000000000000000000000000000000602082015250565b6000611fd3602683611485565b9150611fde82611f77565b604082019050919050565b6000602082019050818103600083015261200281611fc6565b9050919050565b7f54686973206164647265737320697320616c7265616479206120626c6f6f642060008201527f62616e6b00000000000000000000000000000000000000000000000000000000602082015250565b6000612065602483611485565b915061207082612009565b604082019050919050565b6000602082019050818103600083015261209481612058565b9050919050565b7f4f6e6c7920616e20617574686f72697a656420686f73706974616c2063616e2060008201527f706572666f726d207468697320616374696f6e00000000000000000000000000602082015250565b60006120f7603383611485565b91506121028261209b565b604082019050919050565b60006020820190508181036000830152612126816120ea565b9050919050565b7f556e6974206973206e6f7420617661696c61626c6520666f722072657175657360008201527f7400000000000000000000000000000000000000000000000000000000000000602082015250565b6000612189602183611485565b91506121948261212d565b604082019050919050565b600060208201905081810360008301526121b88161217c565b905091905056fea26469706673582212209e33c5bc0d498d349485e8a6483350a2a993a74a33a90b2b895face801753ff864736f6c634300081c0033",
  "linkReferences": {},
  "deployedLinkReferences": {}
}